:020000020000FC
:02000000FFC03F
:0200040067C1D2
:0200080077C1BE
:1002000008E00EBF0FEF0DBF0898109A52985A9A47
:1002100053985B9A0E94F5010E94C5010E94AC01AF
:100220000E94270300E400937C0006E800937A0014
:100230000027009300060093010601E0CDD0289826
:1002400011E0B4D004E1C8D0289812E8AFD0F7E0AC
:10025000E6E615911D3029F001E0BED0289AA6D01F
:10026000F8CF01E0B9D0289812ECA0D0F7E0E4E78D
:1002700015911D3029F001E0AFD0289A97D0F8CF22
:100280000AE0009369007894E89AE99A00E4009300
:100290007C0020917A00206420937A0020917A00DB
:1002A00020742034D9F3609178007091790005E6CC
:1002B00010E08894601B710B609300027093010240
:1002C0000E946B0118F3A5D0959108D14FD1D1D0E0
:1002D000C7D1DCCF18951091010600910006711767
:1002E00009F004C0601711F4089405C0709301066A
:1002F00060930006889408950F931F933F93FF9394
:10030000EF93BF93AF933BE0F3E0EEE405910E94DF
:1003100002023A953030D1F7B5E0A0E035E00D911A
:10032000003029F4343011F40EE201C000E30E94E1
:1003300002023A95303099F704E20E940202AF912E
:10034000BF91EF91FF913F911F910F9118954749F0
:1003500041205449454E3A200AEF3ED00AEF2898F2
:1003600010E324D00AE238D0289810E31FD002E02E
:1003700033D0289812E31AD018E20DD011E00BD038
:100380001CE009D016E007D008950FEF04B92898B3
:1003900029982A98089501E01FD0289807D0113095
:1003A00011F001E019D004E117D0089501E014D054
:1003B00005B101700F931F93107F102B09D001E03E
:1003C0000BD01F910F911295107F102B01D0089523
:1003D00015B92A9A2A980895F02E08ECE02EEA948E
:1003E0000000E9F7FA94D1F7089508E00093C100FE
:1003F00006E00093C20000270093C50003E30093CA
:10040000C40008951091C00015FFFCCF0093C600F2
:10041000089513E00EE8711728F0601718F0F7E060
:10042000EEEA089512E002E2711740F0711709F048
:1004300002C0601718F0F7E0EEEA089511E00CE64C
:10044000711740F0711709F002C0601718F0F7E05B
:10045000E0EA089510E006EB711718F4601730F029
:1004600002C07117D9F3F7E0E0E90895F7E0E2E898
:10047000089501E0B1DF289811E098DF04E1ACDFD6
:10048000289810E893DF15911D3029F001E0A4DFD2
:10049000289A8CDFF8CF08952224139FB001029F81
:1004A000A001129F500D611D721D309F500D611DE6
:1004B000721D0895080141E122183324001C111C0B
:1004C0004A9559F0221C331C221A330A20F4220EBA
:1004D000331E8894F3CF0894F1CF0895B3E0A0E0E1
:1004E00010910102009100022AE530E0E3DF20E3F1
:1004F000002D0A3028F4802E020F0D93992407C096
:1005000023952D932A952D938824992493941EE264
:100510001D93022D132D2AE030E0BEDF042F152F8E
:100520002AE530E0C7DF002D702E10E3100F1D9379
:10053000022D132D2AE030E0AFDF042F152F2AE51E
:1005400030E0B8DF002D602E10E3100F1D93022D58
:10055000132D2AE030E0A0DF042F152F2AE530E02C
:10056000A9DF002D10E3100F1D9308951127002718
:1005700090FC0E94150320E0821621F00E941803CF
:100580008A94F9CF20E0721631F0889431E0030F9D
:10059000121F7A94F7CF0093000410930104B5E082
:1005A000A0E0292F30E078DF042F152F24E630E07B
:1005B00081DF002D0C93043630F40A3058F410E338
:1005C000100F1D9313C040E3332722273395340FB8
:1005D0003D930456222723950A50E8F72A951AE0FE
:1005E000010F40E3240F2D93040F0D931EE21D9382
:1005F000022D132D2AE030E04FDF042F152F24E6C3
:1006000030E058DF002D10E3100F1D93022D132D45
:100610002AE030E041DF042F152F24E630E04ADFE6
:10062000002D10E3100F1D93089510E004E60895C7
:100630003AE044278894030F141F089500E019E05E
:10064000B3E0A0E001931A951030E1F7089500E0BF
:1006500019E0B6E0A0E001931A951030E1F7089593
:1006600001E0BADE289810ECA1DE01E0B5DE1091C1
:10067000000501E0B1DE289A99DE01E0ADDE1091BF
:10068000010501E0A9DE289A91DE01E0A5DE1091C6
:10069000020501E0A1DE289A89DE01E09DDE1091CD
:1006A000030501E099DE289A81DE01E095DE1091D4
:1006B0000405103009F410E301E08EDE289A76DE9E
:1006C00001E08ADE14E201E087DE289A6FDE01E0B5
:1006D00083DE10E201E080DE289A68DE01E07CDE45
:1006E00010E201E079DE289A61DE01E075DE10E2B9
:1006F00001E072DE289A5ADE01E06EDE10910003FE
:1007000001E06ADE289A52DE01E066DE1091010304
:1007100001E062DE289A4ADE01E05EDE109102030B
:1007200001E05ADE289A42DE01E056DE1091030312
:1007300001E052DE289A3ADE01E04EDE1091040319
:1007400001E04ADE289A32DE01E046DE1BE401E0E9
:1007500043DE289A2BDE01E03FDE17E401E03CDEB9
:10076000289A24DE089543414E20545241492043A3
:1007700041590D0042593A204E484154204E454DB2
:100780000D006420202020204D4954204E4F4E0D56
:100790009120204D49542047414E204348494E0D59
:1007A000A0202020204D4954204E474F4E0D7D2043
:0C07B000202020204D4954204749410DD5
:00000001FF
